{
  "_format": "hh-sol-artifact-1",
  "contractName": "DooWorldMarketplace",
  "sourceName": "contracts/DooWorldMarketplace.sol",
  "abi": [
    {
      "inputs": [
        {
          "internalType": "address",
          "name": "_address",
          "type": "address"
        }
      ],
      "stateMutability": "nonpayable",
      "type": "constructor"
    },
    {
      "anonymous": false,
      "inputs": [
        {
          "indexed": true,
          "internalType": "address",
          "name": "nftContract",
          "type": "address"
        },
        {
          "indexed": true,
          "internalType": "uint256",
          "name": "tokenId",
          "type": "uint256"
        },
        {
          "indexed": false,
          "internalType": "string[2]",
          "name": "logType",
          "type": "string[2]"
        },
        {
          "indexed": false,
          "internalType": "address",
          "name": "from",
          "type": "address"
        },
        {
          "indexed": false,
          "internalType": "address",
          "name": "to",
          "type": "address"
        },
        {
          "indexed": false,
          "internalType": "uint256",
          "name": "price",
          "type": "uint256"
        },
        {
          "indexed": false,
          "internalType": "uint256",
          "name": "gasFee",
          "type": "uint256"
        },
        {
          "indexed": false,
          "internalType": "uint256",
          "name": "enteredQuantity",
          "type": "uint256"
        }
      ],
      "name": "Logger",
      "type": "event"
    },
    {
      "inputs": [
        {
          "internalType": "address",
          "name": "",
          "type": "address"
        },
        {
          "internalType": "uint256",
          "name": "",
          "type": "uint256"
        }
      ],
      "name": "AutionDetails",
      "outputs": [
        {
          "internalType": "address",
          "name": "seller",
          "type": "address"
        },
        {
          "internalType": "uint256",
          "name": "price",
          "type": "uint256"
        },
        {
          "internalType": "uint256",
          "name": "duration",
          "type": "uint256"
        },
        {
          "internalType": "uint256",
          "name": "maxBid",
          "type": "uint256"
        },
        {
          "internalType": "address",
          "name": "maxBidUser",
          "type": "address"
        },
        {
          "internalType": "bool",
          "name": "isActive",
          "type": "bool"
        }
      ],
      "stateMutability": "view",
      "type": "function"
    },
    {
      "inputs": [
        {
          "internalType": "address",
          "name": "",
          "type": "address"
        },
        {
          "internalType": "uint256",
          "name": "",
          "type": "uint256"
        }
      ],
      "name": "MarketItems",
      "outputs": [
        {
          "internalType": "address payable",
          "name": "seller",
          "type": "address"
        },
        {
          "internalType": "uint256",
          "name": "price",
          "type": "uint256"
        },
        {
          "internalType": "bool",
          "name": "sale",
          "type": "bool"
        }
      ],
      "stateMutability": "view",
      "type": "function"
    },
    {
      "inputs": [
        {
          "internalType": "address",
          "name": "nftContract",
          "type": "address"
        },
        {
          "internalType": "uint256",
          "name": "tokenId",
          "type": "uint256"
        }
      ],
      "name": "bid",
      "outputs": [],
      "stateMutability": "payable",
      "type": "function"
    },
    {
      "inputs": [
        {
          "internalType": "address",
          "name": "",
          "type": "address"
        },
        {
          "internalType": "uint256",
          "name": "",
          "type": "uint256"
        },
        {
          "internalType": "address",
          "name": "",
          "type": "address"
        }
      ],
      "name": "bids",
      "outputs": [
        {
          "internalType": "uint256",
          "name": "",
          "type": "uint256"
        }
      ],
      "stateMutability": "view",
      "type": "function"
    },
    {
      "inputs": [
        {
          "internalType": "address",
          "name": "nftContract",
          "type": "address"
        },
        {
          "internalType": "uint256",
          "name": "tokenId",
          "type": "uint256"
        }
      ],
      "name": "buy",
      "outputs": [],
      "stateMutability": "payable",
      "type": "function"
    },
    {
      "inputs": [
        {
          "internalType": "address",
          "name": "nftContract",
          "type": "address"
        },
        {
          "internalType": "uint256",
          "name": "tokenId",
          "type": "uint256"
        }
      ],
      "name": "cancelAuction",
      "outputs": [],
      "stateMutability": "nonpayable",
      "type": "function"
    },
    {
      "inputs": [
        {
          "internalType": "address",
          "name": "nftContract",
          "type": "address"
        },
        {
          "internalType": "uint256",
          "name": "tokenId",
          "type": "uint256"
        },
        {
          "internalType": "uint256",
          "name": "price",
          "type": "uint256"
        }
      ],
      "name": "createMarketItem",
      "outputs": [],
      "stateMutability": "payable",
      "type": "function"
    },
    {
      "inputs": [
        {
          "internalType": "address",
          "name": "nftContract",
          "type": "address"
        },
        {
          "internalType": "uint256",
          "name": "tokenId",
          "type": "uint256"
        }
      ],
      "name": "executeSale",
      "outputs": [],
      "stateMutability": "nonpayable",
      "type": "function"
    },
    {
      "inputs": [],
      "name": "getGasFee",
      "outputs": [
        {
          "internalType": "uint256",
          "name": "",
          "type": "uint256"
        }
      ],
      "stateMutability": "view",
      "type": "function"
    },
    {
      "inputs": [
        {
          "internalType": "address",
          "name": "nftContract",
          "type": "address"
        },
        {
          "internalType": "uint256",
          "name": "tokenId",
          "type": "uint256"
        }
      ],
      "name": "getTokenAuctionDetails",
      "outputs": [
        {
          "components": [
            {
              "internalType": "address",
              "name": "seller",
              "type": "address"
            },
            {
              "internalType": "uint256",
              "name": "price",
              "type": "uint256"
            },
            {
              "internalType": "uint256",
              "name": "duration",
              "type": "uint256"
            },
            {
              "internalType": "uint256",
              "name": "maxBid",
              "type": "uint256"
            },
            {
              "internalType": "address",
              "name": "maxBidUser",
              "type": "address"
            },
            {
              "internalType": "bool",
              "name": "isActive",
              "type": "bool"
            },
            {
              "internalType": "uint256[]",
              "name": "bidAmounts",
              "type": "uint256[]"
            },
            {
              "internalType": "address[]",
              "name": "users",
              "type": "address[]"
            }
          ],
          "internalType": "struct DooWorldMarketplace.AuctionDetail",
          "name": "",
          "type": "tuple"
        }
      ],
      "stateMutability": "view",
      "type": "function"
    },
    {
      "inputs": [
        {
          "internalType": "address",
          "name": "nftContract",
          "type": "address"
        },
        {
          "internalType": "uint256",
          "name": "tokenId",
          "type": "uint256"
        }
      ],
      "name": "getTokenMarketItemDetails",
      "outputs": [
        {
          "components": [
            {
              "internalType": "address payable",
              "name": "seller",
              "type": "address"
            },
            {
              "internalType": "uint256",
              "name": "price",
              "type": "uint256"
            },
            {
              "internalType": "bool",
              "name": "sale",
              "type": "bool"
            }
          ],
          "internalType": "struct DooWorldMarketplace.MarketItem",
          "name": "",
          "type": "tuple"
        }
      ],
      "stateMutability": "view",
      "type": "function"
    },
    {
      "inputs": [
        {
          "internalType": "address",
          "name": "",
          "type": "address"
        },
        {
          "internalType": "address",
          "name": "",
          "type": "address"
        },
        {
          "internalType": "uint256",
          "name": "",
          "type": "uint256"
        },
        {
          "internalType": "bytes",
          "name": "",
          "type": "bytes"
        }
      ],
      "name": "onERC721Received",
      "outputs": [
        {
          "internalType": "bytes4",
          "name": "",
          "type": "bytes4"
        }
      ],
      "stateMutability": "pure",
      "type": "function"
    },
    {
      "inputs": [
        {
          "internalType": "address",
          "name": "nftContract",
          "type": "address"
        },
        {
          "internalType": "uint256",
          "name": "tokenId",
          "type": "uint256"
        },
        {
          "internalType": "uint256",
          "name": "price",
          "type": "uint256"
        },
        {
          "internalType": "uint256",
          "name": "duration",
          "type": "uint256"
        }
      ],
      "name": "startAuction",
      "outputs": [],
      "stateMutability": "payable",
      "type": "function"
    },
    {
      "inputs": [
        {
          "internalType": "address",
          "name": "nftContract",
          "type": "address"
        },
        {
          "internalType": "uint256",
          "name": "tokenId",
          "type": "uint256"
        },
        {
          "internalType": "uint256",
          "name": "price",
          "type": "uint256"
        }
      ],
      "name": "toggleSale",
      "outputs": [],
      "stateMutability": "nonpayable",
      "type": "function"
    },
    {
      "inputs": [
        {
          "internalType": "address",
          "name": "nftContract",
          "type": "address"
        },
        {
          "internalType": "address",
          "name": "to",
          "type": "address"
        },
        {
          "internalType": "uint256",
          "name": "tokenId",
          "type": "uint256"
        },
        {
          "internalType": "bool",
          "name": "fee",
          "type": "bool"
        }
      ],
      "name": "transferToken",
      "outputs": [],
      "stateMutability": "payable",
      "type": "function"
    },
    {
      "inputs": [
        {
          "internalType": "uint256",
          "name": "_gasFee",
          "type": "uint256"
        }
      ],
      "name": "updateGasFee",
      "outputs": [],
      "stateMutability": "payable",
      "type": "function"
    },
    {
      "stateMutability": "payable",
      "type": "receive"
    }
  ],
  "bytecode": "0x608060405265e35fa931a0006000553480156200001b57600080fd5b5060405162005684380380620056848339818101604052810190620000419190620000a0565b80600160006101000a81548173ffffffffffffffffffffffffffffffffffffffff021916908373ffffffffffffffffffffffffffffffffffffffff160217905550506200011a565b6000815190506200009a8162000100565b92915050565b600060208284031215620000b357600080fd5b6000620000c38482850162000089565b91505092915050565b6000620000d982620000e0565b9050919050565b600073ffffffffffffffffffffffffffffffffffffffff82169050919050565b6200010b81620000cc565b81146200011757600080fd5b50565b61555a806200012a6000396000f3fe6080604052600436106100f65760003560e01c8063811ea6de1161008a578063b8fe909111610059578063b8fe909114610313578063cce7ec1314610350578063dd7689221461036c578063f822c377146103a9576100fd565b8063811ea6de14610287578063859b97fe146102a357806389a7d1c2146102cc5780639c166273146102f7576100fd565b806358eb2df5116100c657806358eb2df5146101e957806359d667a514610205578063722565c5146102215780637bed72321461025e576100fd565b80627b3731146101025780630c9a754f14610141578063150b7a021461018357806358c09bf3146101c0576100fd565b366100fd57005b600080fd5b34801561010e57600080fd5b50610129600480360381019061012491906140d5565b6103c5565b60405161013893929190614858565b60405180910390f35b34801561014d57600080fd5b50610168600480360381019061016391906140d5565b610429565b60405161017a969594939291906148c6565b60405180910390f35b34801561018f57600080fd5b506101aa60048036038101906101a59190614055565b6104bf565b6040516101b79190614b2f565b60405180910390f35b3480156101cc57600080fd5b506101e760048036038101906101e29190614160565b6104ed565b005b61020360048036038101906101fe9190614160565b610953565b005b61021f600480360381019061021a91906140d5565b610d61565b005b34801561022d57600080fd5b50610248600480360381019061024391906140d5565b61167f565b6040516102559190614daa565b60405180910390f35b34801561026a57600080fd5b50610285600480360381019061028091906140d5565b6118bc565b005b6102a1600480360381019061029c9190613ff2565b6124f5565b005b3480156102af57600080fd5b506102ca60048036038101906102c591906140d5565b61290e565b005b3480156102d857600080fd5b506102e16130ff565b6040516102ee9190614de7565b60405180910390f35b610311600480360381019061030c91906141af565b613108565b005b34801561031f57600080fd5b5061033a600480360381019061033591906140d5565b6136af565b6040516103479190614dcc565b60405180910390f35b61036a600480360381019061036591906140d5565b61379b565b005b34801561037857600080fd5b50610393600480360381019061038e9190614111565b613cbf565b6040516103a09190614de7565b60405180910390f35b6103c360048036038101906103be9190614212565b613cf1565b005b6002602052816000526040600020602052806000526040600020600091509150508060000160009054906101000a900473ffffffffffffffffffffffffffffffffffffffff16908060010154908060020160009054906101000a900460ff16905083565b6003602052816000526040600020602052806000526040600020600091509150508060000160009054906101000a900473ffffffffffffffffffffffffffffffffffffffff16908060010154908060020154908060030154908060040160009054906101000a900473ffffffffffffffffffffffffffffffffffffffff16908060040160149054906101000a900460ff16905086565b60007f150b7a023d4804d13e8c85fb27262cb750cf6ba9f9dd3bb30d90f482ceeb4b1f905095945050505050565b6000600260008573ffffffffffffffffffffffffffffffffffffffff1673ffffffffffffffffffffffffffffffffffffffff1681526020019081526020016000206000848152602001908152602001600020905060008473ffffffffffffffffffffffffffffffffffffffff16636352211e856040518263ffffffff1660e01b815260040161057c9190614de7565b60206040518083038186803b15801561059457600080fd5b505afa1580156105a8573d6000803e3d6000fd5b505050506040513d601f19601f820116820180604052508101906105cc9190613fc9565b90508160020160009054906101000a900460ff1615610796573073ffffffffffffffffffffffffffffffffffffffff168173ffffffffffffffffffffffffffffffffffffffff1614610653576040517f08c379a000000000000000000000000000000000000000000000000000000000815260040161064a90614d2a565b60405180910390fd5b60008260020160006101000a81548160ff0219169083151502179055508473ffffffffffffffffffffffffffffffffffffffff166342842e0e3033876040518463ffffffff1660e01b81526004016106ad9392919061488f565b600060405180830381600087803b1580156106c757600080fd5b505af11580156106db573d6000803e3d6000fd5b50505050838573ffffffffffffffffffffffffffffffffffffffff167f9622c64980ff156cc426cdc6a477c6d9f7a1113f386bf125ac0f45f7b10ec27760405180604001604052806040518060400160405280600b81526020017f53616c652043616e63656c000000000000000000000000000000000000000000815250815260200160405180602001604052806000815250815250303388600080604051610789969594939291906149f7565b60405180910390a361094c565b3373ffffffffffffffffffffffffffffffffffffffff168173ffffffffffffffffffffffffffffffffffffffff1614610804576040517f08c379a00000000000000000000000000000000000000000000000000000000081526004016107fb90614d2a565b60405180910390fd5b60018260020160006101000a81548160ff0219169083151502179055508282600101819055508473ffffffffffffffffffffffffffffffffffffffff166342842e0e3330876040518463ffffffff1660e01b81526004016108679392919061488f565b600060405180830381600087803b15801561088157600080fd5b505af1158015610895573d6000803e3d6000fd5b50505050838573ffffffffffffffffffffffffffffffffffffffff167f9622c64980ff156cc426cdc6a477c6d9f7a1113f386bf125ac0f45f7b10ec27760405180604001604052806040518060400160405280600981526020017f53616c6520496e69740000000000000000000000000000000000000000000000815250815260200160405180602001604052806000815250815250333088600080604051610943969594939291906149f7565b60405180910390a35b5050505050565b60008373ffffffffffffffffffffffffffffffffffffffff16636352211e846040518263ffffffff1660e01b815260040161098e9190614de7565b60206040518083038186803b1580156109a657600080fd5b505afa1580156109ba573d6000803e3d6000fd5b505050506040513d601f19601f820116820180604052508101906109de9190613fc9565b90503373ffffffffffffffffffffffffffffffffffffffff168173ffffffffffffffffffffffffffffffffffffffff1614610a4e576040517f08c379a0000000000000000000000000000000000000000000000000000000008152600401610a4590614d2a565b60405180910390fd5b60008211610a91576040517f08c379a0000000000000000000000000000000000000000000000000000000008152600401610a8890614c2a565b60405180910390fd5b600054341015610ad6576040517f08c379a0000000000000000000000000000000000000000000000000000000008152600401610acd90614b4a565b60405180910390fd5b60405180606001604052803373ffffffffffffffffffffffffffffffffffffffff16815260200183815260200160011515815250600260008673ffffffffffffffffffffffffffffffffffffffff1673ffffffffffffffffffffffffffffffffffffffff168152602001908152602001600020600085815260200190815260200160002060008201518160000160006101000a81548173ffffffffffffffffffffffffffffffffffffffff021916908373ffffffffffffffffffffffffffffffffffffffff1602179055506020820151816001015560408201518160020160006101000a81548160ff0219169083151502179055509050508373ffffffffffffffffffffffffffffffffffffffff166342842e0e3330866040518463ffffffff1660e01b8152600401610c0b9392919061488f565b600060405180830381600087803b158015610c2557600080fd5b505af1158015610c39573d6000803e3d6000fd5b50505050600160009054906101000a900473ffffffffffffffffffffffffffffffffffffffff1673ffffffffffffffffffffffffffffffffffffffff166108fc6000549081150290604051600060405180830381858888f19350505050158015610ca7573d6000803e3d6000fd5b50828473ffffffffffffffffffffffffffffffffffffffff167f9622c64980ff156cc426cdc6a477c6d9f7a1113f386bf125ac0f45f7b10ec27760405180604001604052806040518060400160405280601581526020017f4d61726b6574204974656d73205265676973746572000000000000000000000081525081526020016040518060200160405280600081525081525033308760005434604051610d5396959493929190614ac7565b60405180910390a350505050565b6000600360008473ffffffffffffffffffffffffffffffffffffffff1673ffffffffffffffffffffffffffffffffffffffff168152602001908152602001600020600083815260200190815260200160002090508060010154341015610dfc576040517f08c379a0000000000000000000000000000000000000000000000000000000008152600401610df390614b6a565b60405180910390fd5b8060040160149054906101000a900460ff16610e4d576040517f08c379a0000000000000000000000000000000000000000000000000000000008152600401610e4490614bca565b60405180910390fd5b42816002015411610e93576040517f08c379a0000000000000000000000000000000000000000000000000000000008152600401610e8a90614d6a565b60405180910390fd5b6000600460008573ffffffffffffffffffffffffffffffffffffffff1673ffffffffffffffffffffffffffffffffffffffff168152602001908152602001600020600084815260200190815260200160002060003373ffffffffffffffffffffffffffffffffffffffff1673ffffffffffffffffffffffffffffffffffffffff16815260200190815260200160002054111561130d5760003373ffffffffffffffffffffffffffffffffffffffff16600460008673ffffffffffffffffffffffffffffffffffffffff1673ffffffffffffffffffffffffffffffffffffffff168152602001908152602001600020600085815260200190815260200160002060003373ffffffffffffffffffffffffffffffffffffffff1673ffffffffffffffffffffffffffffffffffffffff16815260200190815260200160002054604051610fdc90614843565b60006040518083038185875af1925050503d8060008114611019576040519150601f19603f3d011682016040523d82523d6000602084013e61101e565b606091505b505090508061102c57600080fd5b828473ffffffffffffffffffffffffffffffffffffffff167f9622c64980ff156cc426cdc6a477c6d9f7a1113f386bf125ac0f45f7b10ec27760405180604001604052806040518060400160405280600681526020017f726566756e6400000000000000000000000000000000000000000000000000008152508152602001604051806020016040528060008152508152503033600460008b73ffffffffffffffffffffffffffffffffffffffff1673ffffffffffffffffffffffffffffffffffffffff16815260200190815260200160002060008a815260200190815260200160002060003373ffffffffffffffffffffffffffffffffffffffff1673ffffffffffffffffffffffffffffffffffffffff1681526020019081526020016000205460003460405161116396959493929190614a5f565b60405180910390a36000600460008673ffffffffffffffffffffffffffffffffffffffff1673ffffffffffffffffffffffffffffffffffffffff168152602001908152602001600020600085815260200190815260200160002060003373ffffffffffffffffffffffffffffffffffffffff1673ffffffffffffffffffffffffffffffffffffffff1681526020019081526020016000208190555060005b826006018054905081101561130a573373ffffffffffffffffffffffffffffffffffffffff16836006018281548110611263577f4e487b7100000000000000000000000000000000000000000000000000000000600052603260045260246000fd5b9060005260206000200160009054906101000a900473ffffffffffffffffffffffffffffffffffffffff1673ffffffffffffffffffffffffffffffffffffffff1614156112f75760008360050182815481106112e8577f4e487b7100000000000000000000000000000000000000000000000000000000600052603260045260246000fd5b90600052602060002001819055505b808061130290615064565b915050611201565b50505b34600460008573ffffffffffffffffffffffffffffffffffffffff1673ffffffffffffffffffffffffffffffffffffffff168152602001908152602001600020600084815260200190815260200160002060003373ffffffffffffffffffffffffffffffffffffffff1673ffffffffffffffffffffffffffffffffffffffff1681526020019081526020016000208190555060008160050180549050141561140057348160030181905550338160040160006101000a81548173ffffffffffffffffffffffffffffffffffffffff021916908373ffffffffffffffffffffffffffffffffffffffff1602179055506114ee565b6000600182600501805490506114169190614f2f565b905034826005018281548110611455577f4e487b7100000000000000000000000000000000000000000000000000000000600052603260045260246000fd5b9060005260206000200154106114a0576040517f08c379a000000000000000000000000000000000000000000000000000000000815260040161149790614c0a565b60405180910390fd5b348260030181905550338260040160006101000a81548173ffffffffffffffffffffffffffffffffffffffff021916908373ffffffffffffffffffffffffffffffffffffffff160217905550505b80600601339080600181540180825580915050600190039060005260206000200160009091909190916101000a81548173ffffffffffffffffffffffffffffffffffffffff021916908373ffffffffffffffffffffffffffffffffffffffff16021790555080600501349080600181540180825580915050600190039060005260206000200160009091909190915055818373ffffffffffffffffffffffffffffffffffffffff167f9622c64980ff156cc426cdc6a477c6d9f7a1113f386bf125ac0f45f7b10ec27760405180604001604052806040518060400160405280600381526020017f626964000000000000000000000000000000000000000000000000000000000081525081526020016040518060400160405280600c81526020017f696e636f6d696e67206269640000000000000000000000000000000000000000815250815250338560000160009054906101000a900473ffffffffffffffffffffffffffffffffffffffff163460003460405161167296959493929190614a5f565b60405180910390a3505050565b611687613d8b565b6000600360008573ffffffffffffffffffffffffffffffffffffffff1673ffffffffffffffffffffffffffffffffffffffff1681526020019081526020016000206000848152602001908152602001600020604051806101000160405290816000820160009054906101000a900473ffffffffffffffffffffffffffffffffffffffff1673ffffffffffffffffffffffffffffffffffffffff1673ffffffffffffffffffffffffffffffffffffffff1681526020016001820154815260200160028201548152602001600382015481526020016004820160009054906101000a900473ffffffffffffffffffffffffffffffffffffffff1673ffffffffffffffffffffffffffffffffffffffff1673ffffffffffffffffffffffffffffffffffffffff1681526020016004820160149054906101000a900460ff161515151581526020016005820180548060200260200160405190810160405280929190818152602001828054801561181957602002820191906000526020600020905b815481526020019060010190808311611805575b50505050508152602001600682018054806020026020016040519081016040528092919081815260200182805480156118a757602002820191906000526020600020905b8160009054906101000a900473ffffffffffffffffffffffffffffffffffffffff1673ffffffffffffffffffffffffffffffffffffffff168152602001906001019080831161185d575b50505050508152505090508091505092915050565b6000600360008473ffffffffffffffffffffffffffffffffffffffff1673ffffffffffffffffffffffffffffffffffffffff168152602001908152602001600020600083815260200190815260200160002090506000600260008573ffffffffffffffffffffffffffffffffffffffff1673ffffffffffffffffffffffffffffffffffffffff1681526020019081526020016000206000848152602001908152602001600020905042826002015411156119ab576040517f08c379a00000000000000000000000000000000000000000000000000000000081526004016119a290614cca565b60405180910390fd5b3373ffffffffffffffffffffffffffffffffffffffff168260000160009054906101000a900473ffffffffffffffffffffffffffffffffffffffff1673ffffffffffffffffffffffffffffffffffffffff1614611a3d576040517f08c379a0000000000000000000000000000000000000000000000000000000008152600401611a3490614d0a565b60405180910390fd5b8160040160149054906101000a900460ff16611a8e576040517f08c379a0000000000000000000000000000000000000000000000000000000008152600401611a8590614d8a565b60405180910390fd5b60008260040160146101000a81548160ff021916908315150217905550600082600501805490501415611c09578373ffffffffffffffffffffffffffffffffffffffff166342842e0e308460000160009054906101000a900473ffffffffffffffffffffffffffffffffffffffff16866040518463ffffffff1660e01b8152600401611b1c9392919061488f565b600060405180830381600087803b158015611b3657600080fd5b505af1158015611b4a573d6000803e3d6000fd5b50505050828473ffffffffffffffffffffffffffffffffffffffff167f9622c64980ff156cc426cdc6a477c6d9f7a1113f386bf125ac0f45f7b10ec27760405180604001604052806040518060400160405280600e81526020017f72657475726e2061756374696f6e00000000000000000000000000000000000081525081526020016040518060200160405280600081525081525030338760010154600080604051611bfc969594939291906149f7565b60405180910390a36124ef565b60008260000160009054906101000a900473ffffffffffffffffffffffffffffffffffffffff1673ffffffffffffffffffffffffffffffffffffffff168360030154604051611c5790614843565b60006040518083038185875af1925050503d8060008114611c94576040519150601f19603f3d011682016040523d82523d6000602084013e611c99565b606091505b5050905080611ca757600080fd5b60005b83600601805490508110156122b1578360040160009054906101000a900473ffffffffffffffffffffffffffffffffffffffff1673ffffffffffffffffffffffffffffffffffffffff16846006018281548110611d30577f4e487b7100000000000000000000000000000000000000000000000000000000600052603260045260246000fd5b9060005260206000200160009054906101000a900473ffffffffffffffffffffffffffffffffffffffff1673ffffffffffffffffffffffffffffffffffffffff1614158015611dc557506000846005018281548110611db8577f4e487b7100000000000000000000000000000000000000000000000000000000600052603260045260246000fd5b9060005260206000200154115b1561229e57836006018181548110611e06577f4e487b7100000000000000000000000000000000000000000000000000000000600052603260045260246000fd5b9060005260206000200160009054906101000a900473ffffffffffffffffffffffffffffffffffffffff1673ffffffffffffffffffffffffffffffffffffffff16600460008873ffffffffffffffffffffffffffffffffffffffff1673ffffffffffffffffffffffffffffffffffffffff16815260200190815260200160002060008781526020019081526020016000206000866006018481548110611ed5577f4e487b7100000000000000000000000000000000000000000000000000000000600052603260045260246000fd5b9060005260206000200160009054906101000a900473ffffffffffffffffffffffffffffffffffffffff1673ffffffffffffffffffffffffffffffffffffffff1673ffffffffffffffffffffffffffffffffffffffff16815260200190815260200160002054604051611f4790614843565b60006040518083038185875af1925050503d8060008114611f84576040519150601f19603f3d011682016040523d82523d6000602084013e611f89565b606091505b50508092505081611f9957600080fd5b848673ffffffffffffffffffffffffffffffffffffffff167f9622c64980ff156cc426cdc6a477c6d9f7a1113f386bf125ac0f45f7b10ec27760405180604001604052806040518060400160405280600681526020017f726566756e64000000000000000000000000000000000000000000000000000081525081526020016040518060200160405280600081525081525030886006018681548110612068577f4e487b7100000000000000000000000000000000000000000000000000000000600052603260045260246000fd5b9060005260206000200160009054906101000a900473ffffffffffffffffffffffffffffffffffffffff16600460008d73ffffffffffffffffffffffffffffffffffffffff1673ffffffffffffffffffffffffffffffffffffffff16815260200190815260200160002060008c815260200190815260200160002060008b6006018981548110612121577f4e487b7100000000000000000000000000000000000000000000000000000000600052603260045260246000fd5b9060005260206000200160009054906101000a900473ffffffffffffffffffffffffffffffffffffffff1673ffffffffffffffffffffffffffffffffffffffff1673ffffffffffffffffffffffffffffffffffffffff1681526020019081526020016000205460008060405161219c969594939291906149f7565b60405180910390a36000600460008873ffffffffffffffffffffffffffffffffffffffff1673ffffffffffffffffffffffffffffffffffffffff16815260200190815260200160002060008781526020019081526020016000206000866006018481548110612234577f4e487b7100000000000000000000000000000000000000000000000000000000600052603260045260246000fd5b9060005260206000200160009054906101000a900473ffffffffffffffffffffffffffffffffffffffff1673ffffffffffffffffffffffffffffffffffffffff1673ffffffffffffffffffffffffffffffffffffffff168152602001908152602001600020819055505b80806122a990615064565b915050611caa565b508473ffffffffffffffffffffffffffffffffffffffff166342842e0e308560040160009054906101000a900473ffffffffffffffffffffffffffffffffffffffff16876040518463ffffffff1660e01b81526004016123139392919061488f565b600060405180830381600087803b15801561232d57600080fd5b505af1158015612341573d6000803e3d6000fd5b505050508260040160009054906101000a900473ffffffffffffffffffffffffffffffffffffffff168360000160006101000a81548173ffffffffffffffffffffffffffffffffffffffff021916908373ffffffffffffffffffffffffffffffffffffffff1602179055508260040160009054906101000a900473ffffffffffffffffffffffffffffffffffffffff168260000160006101000a81548173ffffffffffffffffffffffffffffffffffffffff021916908373ffffffffffffffffffffffffffffffffffffffff160217905550838573ffffffffffffffffffffffffffffffffffffffff167f9622c64980ff156cc426cdc6a477c6d9f7a1113f386bf125ac0f45f7b10ec27760405180604001604052806040518060400160405280600f81526020017f657865637574652061756374696f6e0000000000000000000000000000000000815250815260200160405180602001604052806000815250815250338760040160009054906101000a900473ffffffffffffffffffffffffffffffffffffffff1688600301546000806040516124e5969594939291906149f7565b60405180910390a3505b50505050565b6000600360008673ffffffffffffffffffffffffffffffffffffffff1673ffffffffffffffffffffffffffffffffffffffff168152602001908152602001600020600084815260200190815260200160002090506000600260008773ffffffffffffffffffffffffffffffffffffffff1673ffffffffffffffffffffffffffffffffffffffff1681526020019081526020016000206000858152602001908152602001600020905060008673ffffffffffffffffffffffffffffffffffffffff16636352211e866040518263ffffffff1660e01b81526004016125d89190614de7565b60206040518083038186803b1580156125f057600080fd5b505afa158015612604573d6000803e3d6000fd5b505050506040513d601f19601f820116820180604052508101906126289190613fc9565b90508073ffffffffffffffffffffffffffffffffffffffff163373ffffffffffffffffffffffffffffffffffffffff1614612698576040517f08c379a000000000000000000000000000000000000000000000000000000000815260040161268f90614d2a565b60405180910390fd5b831561274f576000543410156126e3576040517f08c379a00000000000000000000000000000000000000000000000000000000081526004016126da90614bea565b60405180910390fd5b600160009054906101000a900473ffffffffffffffffffffffffffffffffffffffff1673ffffffffffffffffffffffffffffffffffffffff166108fc6000549081150290604051600060405180830381858888f1935050505015801561274d573d6000803e3d6000fd5b505b8673ffffffffffffffffffffffffffffffffffffffff166342842e0e3388886040518463ffffffff1660e01b815260040161278c9392919061488f565b600060405180830381600087803b1580156127a657600080fd5b505af11580156127ba573d6000803e3d6000fd5b50505050858260000160006101000a81548173ffffffffffffffffffffffffffffffffffffffff021916908373ffffffffffffffffffffffffffffffffffffffff160217905550858360000160006101000a81548173ffffffffffffffffffffffffffffffffffffffff021916908373ffffffffffffffffffffffffffffffffffffffff160217905550848773ffffffffffffffffffffffffffffffffffffffff167f9622c64980ff156cc426cdc6a477c6d9f7a1113f386bf125ac0f45f7b10ec27760405180604001604052806040518060400160405280600881526020017f7472616e73666572000000000000000000000000000000000000000000000000815250815260200160405180602001604052806000815250815250338a60008a6128e65760006128ea565b6000545b346040516128fd9695949392919061498f565b60405180910390a350505050505050565b6000600360008473ffffffffffffffffffffffffffffffffffffffff1673ffffffffffffffffffffffffffffffffffffffff168152602001908152602001600020600083815260200190815260200160002090503373ffffffffffffffffffffffffffffffffffffffff168160000160009054906101000a900473ffffffffffffffffffffffffffffffffffffffff1673ffffffffffffffffffffffffffffffffffffffff16146129f4576040517f08c379a00000000000000000000000000000000000000000000000000000000081526004016129eb90614d0a565b60405180910390fd5b8060040160149054906101000a900460ff16612a45576040517f08c379a0000000000000000000000000000000000000000000000000000000008152600401612a3c90614d8a565b60405180910390fd5b60008160040160146101000a81548160ff021916908315150217905550600080600090505b8260060180549050811015612faf576000836005018281548110612ab7577f4e487b7100000000000000000000000000000000000000000000000000000000600052603260045260246000fd5b90600052602060002001541115612f9c57826006018181548110612b04577f4e487b7100000000000000000000000000000000000000000000000000000000600052603260045260246000fd5b9060005260206000200160009054906101000a900473ffffffffffffffffffffffffffffffffffffffff1673ffffffffffffffffffffffffffffffffffffffff16600460008773ffffffffffffffffffffffffffffffffffffffff1673ffffffffffffffffffffffffffffffffffffffff16815260200190815260200160002060008681526020019081526020016000206000856006018481548110612bd3577f4e487b7100000000000000000000000000000000000000000000000000000000600052603260045260246000fd5b9060005260206000200160009054906101000a900473ffffffffffffffffffffffffffffffffffffffff1673ffffffffffffffffffffffffffffffffffffffff1673ffffffffffffffffffffffffffffffffffffffff16815260200190815260200160002054604051612c4590614843565b60006040518083038185875af1925050503d8060008114612c82576040519150601f19603f3d011682016040523d82523d6000602084013e612c87565b606091505b50508092505081612c9757600080fd5b838573ffffffffffffffffffffffffffffffffffffffff167f9622c64980ff156cc426cdc6a477c6d9f7a1113f386bf125ac0f45f7b10ec27760405180604001604052806040518060400160405280600681526020017f726566756e64000000000000000000000000000000000000000000000000000081525081526020016040518060200160405280600081525081525030876006018681548110612d66577f4e487b7100000000000000000000000000000000000000000000000000000000600052603260045260246000fd5b9060005260206000200160009054906101000a900473ffffffffffffffffffffffffffffffffffffffff16600460008c73ffffffffffffffffffffffffffffffffffffffff1673ffffffffffffffffffffffffffffffffffffffff16815260200190815260200160002060008b815260200190815260200160002060008a6006018981548110612e1f577f4e487b7100000000000000000000000000000000000000000000000000000000600052603260045260246000fd5b9060005260206000200160009054906101000a900473ffffffffffffffffffffffffffffffffffffffff1673ffffffffffffffffffffffffffffffffffffffff1673ffffffffffffffffffffffffffffffffffffffff16815260200190815260200160002054600080604051612e9a969594939291906149f7565b60405180910390a36000600460008773ffffffffffffffffffffffffffffffffffffffff1673ffffffffffffffffffffffffffffffffffffffff16815260200190815260200160002060008681526020019081526020016000206000856006018481548110612f32577f4e487b7100000000000000000000000000000000000000000000000000000000600052603260045260246000fd5b9060005260206000200160009054906101000a900473ffffffffffffffffffffffffffffffffffffffff1673ffffffffffffffffffffffffffffffffffffffff1673ffffffffffffffffffffffffffffffffffffffff168152602001908152602001600020819055505b8080612fa790615064565b915050612a6a565b508373ffffffffffffffffffffffffffffffffffffffff166342842e0e308460000160009054906101000a900473ffffffffffffffffffffffffffffffffffffffff16866040518463ffffffff1660e01b81526004016130119392919061488f565b600060405180830381600087803b15801561302b57600080fd5b505af115801561303f573d6000803e3d6000fd5b50505050828473ffffffffffffffffffffffffffffffffffffffff167f9622c64980ff156cc426cdc6a477c6d9f7a1113f386bf125ac0f45f7b10ec27760405180604001604052806040518060400160405280600e81526020017f63616e63656c2061756374696f6e000000000000000000000000000000000000815250815260200160405180602001604052806000815250815250303387600101546000806040516130f1969594939291906149f7565b60405180910390a350505050565b60008054905090565b600073ffffffffffffffffffffffffffffffffffffffff163373ffffffffffffffffffffffffffffffffffffffff161415613178576040517f08c379a000000000000000000000000000000000000000000000000000000000815260040161316f90614caa565b60405180910390fd5b600073ffffffffffffffffffffffffffffffffffffffff168473ffffffffffffffffffffffffffffffffffffffff1614156131e8576040517f08c379a00000000000000000000000000000000000000000000000000000000081526004016131df90614c8a565b60405180910390fd5b6000821161322b576040517f08c379a000000000000000000000000000000000000000000000000000000000815260040161322290614c6a565b60405180910390fd5b6000811161326e576040517f08c379a000000000000000000000000000000000000000000000000000000000815260040161326590614baa565b60405180910390fd5b60006040518061010001604052803373ffffffffffffffffffffffffffffffffffffffff16815260200184815260200183815260200160008152602001600073ffffffffffffffffffffffffffffffffffffffff168152602001600115158152602001600067ffffffffffffffff811115613312577f4e487b7100000000000000000000000000000000000000000000000000000000600052604160045260246000fd5b6040519080825280602002602001820160405280156133405781602001602082028036833780820191505090505b508152602001600067ffffffffffffffff811115613387577f4e487b7100000000000000000000000000000000000000000000000000000000600052604160045260246000fd5b6040519080825280602002602001820160405280156133b55781602001602082028036833780820191505090505b50815250905060003390508573ffffffffffffffffffffffffffffffffffffffff166342842e0e8230886040518463ffffffff1660e01b81526004016133fd9392919061488f565b600060405180830381600087803b15801561341757600080fd5b505af115801561342b573d6000803e3d6000fd5b5050505081600360008873ffffffffffffffffffffffffffffffffffffffff1673ffffffffffffffffffffffffffffffffffffffff168152602001908152602001600020600087815260200190815260200160002060008201518160000160006101000a81548173ffffffffffffffffffffffffffffffffffffffff021916908373ffffffffffffffffffffffffffffffffffffffff16021790555060208201518160010155604082015181600201556060820151816003015560808201518160040160006101000a81548173ffffffffffffffffffffffffffffffffffffffff021916908373ffffffffffffffffffffffffffffffffffffffff16021790555060a08201518160040160146101000a81548160ff02191690831515021790555060c0820151816005019080519060200190613568929190613dfe565b5060e0820151816006019080519060200190613585929190613e4b565b50905050600160009054906101000a900473ffffffffffffffffffffffffffffffffffffffff1673ffffffffffffffffffffffffffffffffffffffff166108fc6000549081150290604051600060405180830381858888f193505050501580156135f3573d6000803e3d6000fd5b50848673ffffffffffffffffffffffffffffffffffffffff167f9622c64980ff156cc426cdc6a477c6d9f7a1113f386bf125ac0f45f7b10ec27760405180604001604052806040518060400160405280600d81526020017f73746172742061756374696f6e000000000000000000000000000000000000008152508152602001604051806020016040528060008152508152503330896000543460405161369f96959493929190614ac7565b60405180910390a3505050505050565b6136b7613ed5565b6000600260008573ffffffffffffffffffffffffffffffffffffffff1673ffffffffffffffffffffffffffffffffffffffff16815260200190815260200160002060008481526020019081526020016000206040518060600160405290816000820160009054906101000a900473ffffffffffffffffffffffffffffffffffffffff1673ffffffffffffffffffffffffffffffffffffffff1673ffffffffffffffffffffffffffffffffffffffff168152602001600182015481526020016002820160009054906101000a900460ff16151515158152505090508091505092915050565b6000600360008473ffffffffffffffffffffffffffffffffffffffff1673ffffffffffffffffffffffffffffffffffffffff168152602001908152602001600020600083815260200190815260200160002090506000600260008573ffffffffffffffffffffffffffffffffffffffff1673ffffffffffffffffffffffffffffffffffffffff1681526020019081526020016000206000848152602001908152602001600020905060008473ffffffffffffffffffffffffffffffffffffffff16636352211e856040518263ffffffff1660e01b815260040161387e9190614de7565b60206040518083038186803b15801561389657600080fd5b505afa1580156138aa573d6000803e3d6000fd5b505050506040513d601f19601f820116820180604052508101906138ce9190613fc9565b90503373ffffffffffffffffffffffffffffffffffffffff168173ffffffffffffffffffffffffffffffffffffffff16141561393f576040517f08c379a000000000000000000000000000000000000000000000000000000000815260040161393690614b8a565b60405180910390fd5b6000805483600101546139529190614ed9565b905060008360000160009054906101000a900473ffffffffffffffffffffffffffffffffffffffff1690508360020160009054906101000a900460ff166139ce576040517f08c379a00000000000000000000000000000000000000000000000000000000081526004016139c590614d4a565b60405180910390fd5b81341015613a11576040517f08c379a0000000000000000000000000000000000000000000000000000000008152600401613a0890614c4a565b60405180910390fd5b8673ffffffffffffffffffffffffffffffffffffffff166342842e0e8433896040518463ffffffff1660e01b8152600401613a4e9392919061488f565b600060405180830381600087803b158015613a6857600080fd5b505af1158015613a7c573d6000803e3d6000fd5b505050508073ffffffffffffffffffffffffffffffffffffffff166108fc85600101549081150290604051600060405180830381858888f19350505050158015613aca573d6000803e3d6000fd5b50600160009054906101000a900473ffffffffffffffffffffffffffffffffffffffff1673ffffffffffffffffffffffffffffffffffffffff166108fc6000549081150290604051600060405180830381858888f19350505050158015613b35573d6000803e3d6000fd5b50338460000160006101000a81548173ffffffffffffffffffffffffffffffffffffffff021916908373ffffffffffffffffffffffffffffffffffffffff160217905550338560000160006101000a81548173ffffffffffffffffffffffffffffffffffffffff021916908373ffffffffffffffffffffffffffffffffffffffff16021790555060008460020160006101000a81548160ff021916908315150217905550858773ffffffffffffffffffffffffffffffffffffffff167f9622c64980ff156cc426cdc6a477c6d9f7a1113f386bf125ac0f45f7b10ec27760405180604001604052806040518060400160405280600481526020017f73656c6c0000000000000000000000000000000000000000000000000000000081525081526020016040518060400160405280600381526020017f62757900000000000000000000000000000000000000000000000000000000008152508152508433896001015460005434604051613cae96959493929190614927565b60405180910390a350505050505050565b600460205282600052604060002060205281600052604060002060205280600052604060002060009250925050505481565b3373ffffffffffffffffffffffffffffffffffffffff16600160009054906101000a900473ffffffffffffffffffffffffffffffffffffffff1673ffffffffffffffffffffffffffffffffffffffff1614613d81576040517f08c379a0000000000000000000000000000000000000000000000000000000008152600401613d7890614cea565b60405180910390fd5b8060008190555050565b604051806101000160405280600073ffffffffffffffffffffffffffffffffffffffff168152602001600081526020016000815260200160008152602001600073ffffffffffffffffffffffffffffffffffffffff16815260200160001515815260200160608152602001606081525090565b828054828255906000526020600020908101928215613e3a579160200282015b82811115613e39578251825591602001919060010190613e1e565b5b509050613e479190613f0e565b5090565b828054828255906000526020600020908101928215613ec4579160200282015b82811115613ec35782518260006101000a81548173ffffffffffffffffffffffffffffffffffffffff021916908373ffffffffffffffffffffffffffffffffffffffff16021790555091602001919060010190613e6b565b5b509050613ed19190613f0e565b5090565b6040518060600160405280600073ffffffffffffffffffffffffffffffffffffffff168152602001600081526020016000151581525090565b5b80821115613f27576000816000905550600101613f0f565b5090565b600081359050613f3a816154df565b92915050565b600081519050613f4f816154df565b92915050565b600081359050613f64816154f6565b92915050565b60008083601f840112613f7c57600080fd5b8235905067ffffffffffffffff811115613f9557600080fd5b602083019150836001820283011115613fad57600080fd5b9250929050565b600081359050613fc38161550d565b92915050565b600060208284031215613fdb57600080fd5b6000613fe984828501613f40565b91505092915050565b6000806000806080858703121561400857600080fd5b600061401687828801613f2b565b945050602061402787828801613f2b565b935050604061403887828801613fb4565b925050606061404987828801613f55565b91505092959194509250565b60008060008060006080868803121561406d57600080fd5b600061407b88828901613f2b565b955050602061408c88828901613f2b565b945050604061409d88828901613fb4565b935050606086013567ffffffffffffffff8111156140ba57600080fd5b6140c688828901613f6a565b92509250509295509295909350565b600080604083850312156140e857600080fd5b60006140f685828601613f2b565b925050602061410785828601613fb4565b9150509250929050565b60008060006060848603121561412657600080fd5b600061413486828701613f2b565b935050602061414586828701613fb4565b925050604061415686828701613f2b565b9150509250925092565b60008060006060848603121561417557600080fd5b600061418386828701613f2b565b935050602061419486828701613fb4565b92505060406141a586828701613fb4565b9150509250925092565b600080600080608085870312156141c557600080fd5b60006141d387828801613f2b565b94505060206141e487828801613fb4565b93505060406141f587828801613fb4565b925050606061420687828801613fb4565b91505092959194509250565b60006020828403121561422457600080fd5b600061423284828501613fb4565b91505092915050565b600061424783836142ac565b60208301905092915050565b600061425f8383614437565b905092915050565b60006142738383614825565b60208301905092915050565b61428881614fe9565b82525050565b61429781614f75565b82525050565b6142a681614f75565b82525050565b6142b581614f63565b82525050565b6142c481614f63565b82525050565b60006142d582614e2c565b6142df8185614e7f565b93506142ea83614e02565b8060005b8381101561431b578151614302888261423b565b975061430d83614e58565b9250506001810190506142ee565b5085935050505092915050565b600061433382614e37565b61433d8185614e90565b93508360208202850161434f85614e12565b8060005b8581101561438b578484038952815161436c8582614253565b945061437783614e65565b925060208a01995050600181019050614353565b50829750879550505050505092915050565b60006143a882614e42565b6143b28185614e9b565b93506143bd83614e1c565b8060005b838110156143ee5781516143d58882614267565b97506143e083614e72565b9250506001810190506143c1565b5085935050505092915050565b61440481614f87565b82525050565b61441381614f87565b82525050565b61442281614f93565b82525050565b61443181614ffb565b82525050565b600061444282614e4d565b61444c8185614eb7565b935061445c818560208601615031565b614465816150dc565b840191505092915050565b600061447d601e83614ec8565b9150614488826150ed565b602082019050919050565b60006144a0602483614ec8565b91506144ab82615116565b604082019050919050565b60006144c3601883614ec8565b91506144ce82615165565b602082019050919050565b60006144e6601683614ec8565b91506144f18261518e565b602082019050919050565b6000614509601283614ec8565b9150614514826151b7565b602082019050919050565b600061452c602683614ec8565b9150614537826151e0565b604082019050919050565b600061454f602783614ec8565b915061455a8261522f565b604082019050919050565b6000614572602283614ec8565b915061457d8261527e565b604082019050919050565b6000614595604083614ec8565b91506145a0826152cd565b604082019050919050565b60006145b8601a83614ec8565b91506145c38261531c565b602082019050919050565b60006145db600f83614ec8565b91506145e682615345565b602082019050919050565b60006145fe600f83614ec8565b91506146098261536e565b602082019050919050565b6000614621601983614ec8565b915061462c82615397565b602082019050919050565b6000614644600083614eac565b915061464f826153c0565b600082019050919050565b6000614667603083614ec8565b9150614672826153c3565b604082019050919050565b600061468a600a83614ec8565b915061469582615412565b602082019050919050565b60006146ad601983614ec8565b91506146b88261543b565b602082019050919050565b60006146d0601783614ec8565b91506146db82615464565b602082019050919050565b60006146f3601783614ec8565b91506146fe8261548d565b602082019050919050565b6000614716601283614ec8565b9150614721826154b6565b602082019050919050565b60006101008301600083015161474560008601826142ac565b5060208301516147586020860182614825565b50604083015161476b6040860182614825565b50606083015161477e6060860182614825565b50608083015161479160808601826142ac565b5060a08301516147a460a08601826143fb565b5060c083015184820360c08601526147bc828261439d565b91505060e083015184820360e08601526147d682826142ca565b9150508091505092915050565b6060820160008201516147f9600085018261428e565b50602082015161480c6020850182614825565b50604082015161481f60408501826143fb565b50505050565b61482e81614fdf565b82525050565b61483d81614fdf565b82525050565b600061484e82614637565b9150819050919050565b600060608201905061486d600083018661429d565b61487a6020830185614834565b614887604083018461440a565b949350505050565b60006060820190506148a460008301866142bb565b6148b160208301856142bb565b6148be6040830184614834565b949350505050565b600060c0820190506148db60008301896142bb565b6148e86020830188614834565b6148f56040830187614834565b6149026060830186614834565b61490f60808301856142bb565b61491c60a083018461440a565b979650505050505050565b600060c08201905081810360008301526149418189614328565b9050614950602083018861427f565b61495d60408301876142bb565b61496a6060830186614834565b6149776080830185614834565b61498460a0830184614834565b979650505050505050565b600060c08201905081810360008301526149a98189614328565b90506149b860208301886142bb565b6149c560408301876142bb565b6149d26060830186614428565b6149df6080830185614834565b6149ec60a0830184614834565b979650505050505050565b600060c0820190508181036000830152614a118189614328565b9050614a2060208301886142bb565b614a2d60408301876142bb565b614a3a6060830186614834565b614a476080830185614428565b614a5460a0830184614428565b979650505050505050565b600060c0820190508181036000830152614a798189614328565b9050614a8860208301886142bb565b614a9560408301876142bb565b614aa26060830186614834565b614aaf6080830185614428565b614abc60a0830184614834565b979650505050505050565b600060c0820190508181036000830152614ae18189614328565b9050614af060208301886142bb565b614afd60408301876142bb565b614b0a6060830186614834565b614b176080830185614834565b614b2460a0830184614834565b979650505050505050565b6000602082019050614b446000830184614419565b92915050565b60006020820190508181036000830152614b6381614470565b9050919050565b60006020820190508181036000830152614b8381614493565b9050919050565b60006020820190508181036000830152614ba3816144b6565b9050919050565b60006020820190508181036000830152614bc3816144d9565b9050919050565b60006020820190508181036000830152614be3816144fc565b9050919050565b60006020820190508181036000830152614c038161451f565b9050919050565b60006020820190508181036000830152614c2381614542565b9050919050565b60006020820190508181036000830152614c4381614565565b9050919050565b60006020820190508181036000830152614c6381614588565b9050919050565b60006020820190508181036000830152614c83816145ab565b9050919050565b60006020820190508181036000830152614ca3816145ce565b9050919050565b60006020820190508181036000830152614cc3816145f1565b9050919050565b60006020820190508181036000830152614ce381614614565b9050919050565b60006020820190508181036000830152614d038161465a565b9050919050565b60006020820190508181036000830152614d238161467d565b9050919050565b60006020820190508181036000830152614d43816146a0565b9050919050565b60006020820190508181036000830152614d63816146c3565b9050919050565b60006020820190508181036000830152614d83816146e6565b9050919050565b60006020820190508181036000830152614da381614709565b9050919050565b60006020820190508181036000830152614dc4818461472c565b905092915050565b6000606082019050614de160008301846147e3565b92915050565b6000602082019050614dfc6000830184614834565b92915050565b6000819050602082019050919050565b6000819050919050565b6000819050602082019050919050565b600081519050919050565b600060029050919050565b600081519050919050565b600081519050919050565b6000602082019050919050565b6000602082019050919050565b6000602082019050919050565b600082825260208201905092915050565b600081905092915050565b600082825260208201905092915050565b600081905092915050565b600082825260208201905092915050565b600082825260208201905092915050565b6000614ee482614fdf565b9150614eef83614fdf565b9250827fffffffffffffffffffffffffffffffffffffffffffffffffffffffffffffffff03821115614f2457614f236150ad565b5b828201905092915050565b6000614f3a82614fdf565b9150614f4583614fdf565b925082821015614f5857614f576150ad565b5b828203905092915050565b6000614f6e82614fbf565b9050919050565b6000614f8082614fbf565b9050919050565b60008115159050919050565b60007fffffffff0000000000000000000000000000000000000000000000000000000082169050919050565b600073ffffffffffffffffffffffffffffffffffffffff82169050919050565b6000819050919050565b6000614ff48261500d565b9050919050565b600061500682614fdf565b9050919050565b60006150188261501f565b9050919050565b600061502a82614fbf565b9050919050565b60005b8381101561504f578082015181840152602081019050615034565b8381111561505e576000848401525b50505050565b600061506f82614fdf565b91507fffffffffffffffffffffffffffffffffffffffffffffffffffffffffffffffff8214156150a2576150a16150ad565b5b600182019050919050565b7f4e487b7100000000000000000000000000000000000000000000000000000000600052601160045260246000fd5b6000601f19601f8301169050919050565b7f5072696365206d75737420626520657175616c20746f20476173204665650000600082015250565b7f426964207072696365206973206c657373207468616e2063757272656e74207060008201527f7269636500000000000000000000000000000000000000000000000000000000602082015250565b7f416c72656164792068616e7665207468697320746f6b656e0000000000000000600082015250565b7f496e76616c6964206475726174696f6e2076616c756500000000000000000000600082015250565b7f41756374696f6e206e6f74206163746976650000000000000000000000000000600082015250565b7f506c656173652073756d6269742047617346656520746f207472616e7366657260008201527f20746f6b656e0000000000000000000000000000000000000000000000000000602082015250565b7f43757272656e74206d61782062696420697320686967686572207468616e207960008201527f6f75722062696400000000000000000000000000000000000000000000000000602082015250565b7f5072696365206d7573742062652067726561746572207468616e20676173204660008201527f6565000000000000000000000000000000000000000000000000000000000000602082015250565b7f506c65617365207375626d6974207468652061736b696e67207072696365206960008201527f6e206f7264657220746f20636f6d706c65746520746865207075726368617365602082015250565b7f50726963652073686f6c64206265206d6f7265207468616e2030000000000000600082015250565b7f496e76616c6964204163636f756e740000000000000000000000000000000000600082015250565b7f496e76616c696420416464726573730000000000000000000000000000000000600082015250565b7f446561646c696e6520646964206e6f7420706173732079657400000000000000600082015250565b50565b7f4f6e6c79206d61726b6574706c616365206f776e65722063616e20757064617460008201527f65206c697374696e672070726963652e00000000000000000000000000000000602082015250565b7f4e6f742073656c6c657200000000000000000000000000000000000000000000600082015250565b7f4e6f742061206f776e6572206f66207468697320746f6b656e00000000000000600082015250565b7f49742773206e6f7420726561647920666f722073616c65000000000000000000600082015250565b7f446561646c696e6520616c726561647920706173736564000000000000000000600082015250565b7f61756374696f6e206e6f74206163746976650000000000000000000000000000600082015250565b6154e881614f63565b81146154f357600080fd5b50565b6154ff81614f87565b811461550a57600080fd5b50565b61551681614fdf565b811461552157600080fd5b5056fea26469706673582212204daff7753ca852734a939700565b30e689d99ecf4bb5ca50b2165eba9f11a37364736f6c63430008040033",
  "linkReferences": {},
  "deployedLinkReferences": {}
}