{
  "_format": "hh-sol-artifact-1",
  "contractName": "DooWorldMinter",
  "sourceName": "contracts/DooWorldMinter.sol",
  "abi": [
    {
      "inputs": [
        {
          "internalType": "address",
          "name": "_address",
          "type": "address"
        }
      ],
      "stateMutability": "nonpayable",
      "type": "constructor"
    },
    {
      "anonymous": false,
      "inputs": [
        {
          "indexed": true,
          "internalType": "address",
          "name": "owner",
          "type": "address"
        },
        {
          "indexed": true,
          "internalType": "address",
          "name": "approved",
          "type": "address"
        },
        {
          "indexed": true,
          "internalType": "uint256",
          "name": "tokenId",
          "type": "uint256"
        }
      ],
      "name": "Approval",
      "type": "event"
    },
    {
      "anonymous": false,
      "inputs": [
        {
          "indexed": true,
          "internalType": "address",
          "name": "owner",
          "type": "address"
        },
        {
          "indexed": true,
          "internalType": "address",
          "name": "operator",
          "type": "address"
        },
        {
          "indexed": false,
          "internalType": "bool",
          "name": "approved",
          "type": "bool"
        }
      ],
      "name": "ApprovalForAll",
      "type": "event"
    },
    {
      "anonymous": false,
      "inputs": [
        {
          "indexed": true,
          "internalType": "address",
          "name": "from",
          "type": "address"
        },
        {
          "indexed": true,
          "internalType": "address",
          "name": "to",
          "type": "address"
        },
        {
          "indexed": true,
          "internalType": "uint256",
          "name": "tokenId",
          "type": "uint256"
        }
      ],
      "name": "Transfer",
      "type": "event"
    },
    {
      "inputs": [
        {
          "internalType": "address",
          "name": "to",
          "type": "address"
        },
        {
          "internalType": "uint256",
          "name": "tokenId",
          "type": "uint256"
        }
      ],
      "name": "approve",
      "outputs": [],
      "stateMutability": "nonpayable",
      "type": "function"
    },
    {
      "inputs": [
        {
          "internalType": "address",
          "name": "owner",
          "type": "address"
        }
      ],
      "name": "balanceOf",
      "outputs": [
        {
          "internalType": "uint256",
          "name": "",
          "type": "uint256"
        }
      ],
      "stateMutability": "view",
      "type": "function"
    },
    {
      "inputs": [
        {
          "internalType": "string",
          "name": "tokenURI",
          "type": "string"
        }
      ],
      "name": "createToken",
      "outputs": [
        {
          "internalType": "uint256",
          "name": "",
          "type": "uint256"
        }
      ],
      "stateMutability": "payable",
      "type": "function"
    },
    {
      "inputs": [
        {
          "internalType": "uint256",
          "name": "tokenId",
          "type": "uint256"
        }
      ],
      "name": "getApproved",
      "outputs": [
        {
          "internalType": "address",
          "name": "",
          "type": "address"
        }
      ],
      "stateMutability": "view",
      "type": "function"
    },
    {
      "inputs": [],
      "name": "getGasFee",
      "outputs": [
        {
          "internalType": "uint256",
          "name": "",
          "type": "uint256"
        }
      ],
      "stateMutability": "view",
      "type": "function"
    },
    {
      "inputs": [],
      "name": "getTotalTokens",
      "outputs": [
        {
          "internalType": "uint256",
          "name": "",
          "type": "uint256"
        }
      ],
      "stateMutability": "view",
      "type": "function"
    },
    {
      "inputs": [
        {
          "internalType": "address",
          "name": "owner",
          "type": "address"
        },
        {
          "internalType": "address",
          "name": "operator",
          "type": "address"
        }
      ],
      "name": "isApprovedForAll",
      "outputs": [
        {
          "internalType": "bool",
          "name": "",
          "type": "bool"
        }
      ],
      "stateMutability": "view",
      "type": "function"
    },
    {
      "inputs": [],
      "name": "name",
      "outputs": [
        {
          "internalType": "string",
          "name": "",
          "type": "string"
        }
      ],
      "stateMutability": "view",
      "type": "function"
    },
    {
      "inputs": [
        {
          "internalType": "uint256",
          "name": "tokenId",
          "type": "uint256"
        }
      ],
      "name": "ownerOf",
      "outputs": [
        {
          "internalType": "address",
          "name": "",
          "type": "address"
        }
      ],
      "stateMutability": "view",
      "type": "function"
    },
    {
      "inputs": [
        {
          "internalType": "address",
          "name": "from",
          "type": "address"
        },
        {
          "internalType": "address",
          "name": "to",
          "type": "address"
        },
        {
          "internalType": "uint256",
          "name": "tokenId",
          "type": "uint256"
        }
      ],
      "name": "safeTransferFrom",
      "outputs": [],
      "stateMutability": "nonpayable",
      "type": "function"
    },
    {
      "inputs": [
        {
          "internalType": "address",
          "name": "from",
          "type": "address"
        },
        {
          "internalType": "address",
          "name": "to",
          "type": "address"
        },
        {
          "internalType": "uint256",
          "name": "tokenId",
          "type": "uint256"
        },
        {
          "internalType": "bytes",
          "name": "data",
          "type": "bytes"
        }
      ],
      "name": "safeTransferFrom",
      "outputs": [],
      "stateMutability": "nonpayable",
      "type": "function"
    },
    {
      "inputs": [
        {
          "internalType": "address",
          "name": "operator",
          "type": "address"
        },
        {
          "internalType": "bool",
          "name": "approved",
          "type": "bool"
        }
      ],
      "name": "setApprovalForAll",
      "outputs": [],
      "stateMutability": "nonpayable",
      "type": "function"
    },
    {
      "inputs": [
        {
          "internalType": "bytes4",
          "name": "interfaceId",
          "type": "bytes4"
        }
      ],
      "name": "supportsInterface",
      "outputs": [
        {
          "internalType": "bool",
          "name": "",
          "type": "bool"
        }
      ],
      "stateMutability": "view",
      "type": "function"
    },
    {
      "inputs": [],
      "name": "symbol",
      "outputs": [
        {
          "internalType": "string",
          "name": "",
          "type": "string"
        }
      ],
      "stateMutability": "view",
      "type": "function"
    },
    {
      "inputs": [
        {
          "internalType": "uint256",
          "name": "tokenId",
          "type": "uint256"
        }
      ],
      "name": "tokenURI",
      "outputs": [
        {
          "internalType": "string",
          "name": "",
          "type": "string"
        }
      ],
      "stateMutability": "view",
      "type": "function"
    },
    {
      "inputs": [
        {
          "internalType": "address",
          "name": "from",
          "type": "address"
        },
        {
          "internalType": "address",
          "name": "to",
          "type": "address"
        },
        {
          "internalType": "uint256",
          "name": "tokenId",
          "type": "uint256"
        }
      ],
      "name": "transferFrom",
      "outputs": [],
      "stateMutability": "nonpayable",
      "type": "function"
    },
    {
      "inputs": [
        {
          "internalType": "uint256",
          "name": "_gasFee",
          "type": "uint256"
        }
      ],
      "name": "updateGasFee",
      "outputs": [],
      "stateMutability": "nonpayable",
      "type": "function"
    }
  ],
  "bytecode": "0x608060405265e35fa931a0006009553480156200001b57600080fd5b50604051620031e0380380620031e08339818101604052810190620000419190620001f0565b6040518060400160405280600e81526020017f446f6f576f726c644d696e7465720000000000000000000000000000000000008152506040518060400160405280600481526020017f50595241000000000000000000000000000000000000000000000000000000008152508160009080519060200190620000c592919062000129565b508060019080519060200190620000de92919062000129565b50505080600860006101000a81548173ffffffffffffffffffffffffffffffffffffffff021916908373ffffffffffffffffffffffffffffffffffffffff16021790555050620002cf565b828054620001379062000250565b90600052602060002090601f0160209004810192826200015b5760008555620001a7565b82601f106200017657805160ff1916838001178555620001a7565b82800160010185558215620001a7579182015b82811115620001a657825182559160200191906001019062000189565b5b509050620001b69190620001ba565b5090565b5b80821115620001d5576000816000905550600101620001bb565b5090565b600081519050620001ea81620002b5565b92915050565b6000602082840312156200020357600080fd5b60006200021384828501620001d9565b91505092915050565b6000620002298262000230565b9050919050565b600073ffffffffffffffffffffffffffffffffffffffff82169050919050565b600060028204905060018216806200026957607f821691505b6020821081141562000280576200027f62000286565b5b50919050565b7f4e487b7100000000000000000000000000000000000000000000000000000000600052602260045260246000fd5b620002c0816200021c565b8114620002cc57600080fd5b50565b612f0180620002df6000396000f3fe6080604052600436106100fe5760003560e01c806370a0823111610095578063b88d4fde11610064578063b88d4fde1461034c578063c87b56dd14610375578063e985e9c5146103b2578063f08b82e6146103ef578063f822c3771461041a576100fe565b806370a082311461029057806389a7d1c2146102cd57806395d89b41146102f8578063a22cb46514610323576100fe565b806323b872dd116100d157806323b872dd146101d157806342842e0e146101fa57806345576f94146102235780636352211e14610253576100fe565b806301ffc9a71461010357806306fdde0314610140578063081812fc1461016b578063095ea7b3146101a8575b600080fd5b34801561010f57600080fd5b5061012a600480360381019061012591906121b7565b610443565b60405161013791906125b8565b60405180910390f35b34801561014c57600080fd5b50610155610525565b60405161016291906125d3565b60405180910390f35b34801561017757600080fd5b50610192600480360381019061018d919061224a565b6105b7565b60405161019f9190612551565b60405180910390f35b3480156101b457600080fd5b506101cf60048036038101906101ca919061217b565b6105fd565b005b3480156101dd57600080fd5b506101f860048036038101906101f39190612075565b610715565b005b34801561020657600080fd5b50610221600480360381019061021c9190612075565b610775565b005b61023d60048036038101906102389190612209565b610795565b60405161024a91906127b5565b60405180910390f35b34801561025f57600080fd5b5061027a6004803603810190610275919061224a565b610837565b6040516102879190612551565b60405180910390f35b34801561029c57600080fd5b506102b760048036038101906102b29190612010565b6108be565b6040516102c491906127b5565b60405180910390f35b3480156102d957600080fd5b506102e2610976565b6040516102ef91906127b5565b60405180910390f35b34801561030457600080fd5b5061030d610980565b60405161031a91906125d3565b60405180910390f35b34801561032f57600080fd5b5061034a6004803603810190610345919061213f565b610a12565b005b34801561035857600080fd5b50610373600480360381019061036e91906120c4565b610a28565b005b34801561038157600080fd5b5061039c6004803603810190610397919061224a565b610a8a565b6040516103a991906125d3565b60405180910390f35b3480156103be57600080fd5b506103d960048036038101906103d49190612039565b610b9d565b6040516103e691906125b8565b60405180910390f35b3480156103fb57600080fd5b50610404610c31565b60405161041191906127b5565b60405180910390f35b34801561042657600080fd5b50610441600480360381019061043c919061224a565b610cd8565b005b60007f80ac58cd000000000000000000000000000000000000000000000000000000007bffffffffffffffffffffffffffffffffffffffffffffffffffffffff1916827bffffffffffffffffffffffffffffffffffffffffffffffffffffffff1916148061050e57507f5b5e139f000000000000000000000000000000000000000000000000000000007bffffffffffffffffffffffffffffffffffffffffffffffffffffffff1916827bffffffffffffffffffffffffffffffffffffffffffffffffffffffff1916145b8061051e575061051d82610d72565b5b9050919050565b606060008054610534906129da565b80601f0160208091040260200160405190810160405280929190818152602001828054610560906129da565b80156105ad5780601f10610582576101008083540402835291602001916105ad565b820191906000526020600020905b81548152906001019060200180831161059057829003601f168201915b5050505050905090565b60006105c282610ddc565b6004600083815260200190815260200160002060009054906101000a900473ffffffffffffffffffffffffffffffffffffffff169050919050565b600061060882610837565b90508073ffffffffffffffffffffffffffffffffffffffff168373ffffffffffffffffffffffffffffffffffffffff161415610679576040517f08c379a000000000000000000000000000000000000000000000000000000000815260040161067090612735565b60405180910390fd5b8073ffffffffffffffffffffffffffffffffffffffff16610698610e27565b73ffffffffffffffffffffffffffffffffffffffff1614806106c757506106c6816106c1610e27565b610b9d565b5b610706576040517f08c379a00000000000000000000000000000000000000000000000000000000081526004016106fd90612755565b60405180910390fd5b6107108383610e2f565b505050565b610726610720610e27565b82610ee8565b610765576040517f08c379a000000000000000000000000000000000000000000000000000000000815260040161075c906125f5565b60405180910390fd5b610770838383610f7d565b505050565b61079083838360405180602001604052806000815250610a28565b505050565b60006107a16007611277565b60006107ad600761128d565b90506107b9338261129b565b6107c381846114b9565b600860009054906101000a900473ffffffffffffffffffffffffffffffffffffffff1673ffffffffffffffffffffffffffffffffffffffff166108fc6009549081150290604051600060405180830381858888f1935050505015801561082d573d6000803e3d6000fd5b5080915050919050565b6000806108438361152d565b9050600073ffffffffffffffffffffffffffffffffffffffff168173ffffffffffffffffffffffffffffffffffffffff1614156108b5576040517f08c379a00000000000000000000000000000000000000000000000000000000081526004016108ac90612715565b60405180910390fd5b80915050919050565b60008073ffffffffffffffffffffffffffffffffffffffff168273ffffffffffffffffffffffffffffffffffffffff16141561092f576040517f08c379a0000000000000000000000000000000000000000000000000000000008152600401610926906126b5565b60405180910390fd5b600360008373ffffffffffffffffffffffffffffffffffffffff1673ffffffffffffffffffffffffffffffffffffffff168152602001908152602001600020549050919050565b6000600954905090565b60606001805461098f906129da565b80601f01602080910402602001604051908101604052809291908181526020018280546109bb906129da565b8015610a085780601f106109dd57610100808354040283529160200191610a08565b820191906000526020600020905b8154815290600101906020018083116109eb57829003601f168201915b5050505050905090565b610a24610a1d610e27565b838361156a565b5050565b610a39610a33610e27565b83610ee8565b610a78576040517f08c379a0000000000000000000000000000000000000000000000000000000008152600401610a6f906125f5565b60405180910390fd5b610a84848484846116d7565b50505050565b6060610a9582610ddc565b6000600660008481526020019081526020016000208054610ab5906129da565b80601f0160208091040260200160405190810160405280929190818152602001828054610ae1906129da565b8015610b2e5780601f10610b0357610100808354040283529160200191610b2e565b820191906000526020600020905b815481529060010190602001808311610b1157829003601f168201915b505050505090506000610b3f611733565b9050600081511415610b55578192505050610b98565b600082511115610b8a578082604051602001610b7292919061252d565b60405160208183030381529060405292505050610b98565b610b938461174a565b925050505b919050565b6000600560008473ffffffffffffffffffffffffffffffffffffffff1673ffffffffffffffffffffffffffffffffffffffff16815260200190815260200160002060008373ffffffffffffffffffffffffffffffffffffffff1673ffffffffffffffffffffffffffffffffffffffff16815260200190815260200160002060009054906101000a900460ff16905092915050565b6000600860009054906101000a900473ffffffffffffffffffffffffffffffffffffffff1673ffffffffffffffffffffffffffffffffffffffff163373ffffffffffffffffffffffffffffffffffffffff1614610cc3576040517f08c379a0000000000000000000000000000000000000000000000000000000008152600401610cba90612795565b60405180910390fd5b6000610ccf600761128d565b90508091505090565b3373ffffffffffffffffffffffffffffffffffffffff16600860009054906101000a900473ffffffffffffffffffffffffffffffffffffffff1673ffffffffffffffffffffffffffffffffffffffff1614610d68576040517f08c379a0000000000000000000000000000000000000000000000000000000008152600401610d5f90612775565b60405180910390fd5b8060098190555050565b60007f01ffc9a7000000000000000000000000000000000000000000000000000000007bffffffffffffffffffffffffffffffffffffffffffffffffffffffff1916827bffffffffffffffffffffffffffffffffffffffffffffffffffffffff1916149050919050565b610de5816117b2565b610e24576040517f08c379a0000000000000000000000000000000000000000000000000000000008152600401610e1b90612715565b60405180910390fd5b50565b600033905090565b816004600083815260200190815260200160002060006101000a81548173ffffffffffffffffffffffffffffffffffffffff021916908373ffffffffffffffffffffffffffffffffffffffff160217905550808273ffffffffffffffffffffffffffffffffffffffff16610ea283610837565b73ffffffffffffffffffffffffffffffffffffffff167f8c5be1e5ebec7d5bd14f71427d1e84f3dd0314c0f7b2291e5b200ac8c7c3b92560405160405180910390a45050565b600080610ef483610837565b90508073ffffffffffffffffffffffffffffffffffffffff168473ffffffffffffffffffffffffffffffffffffffff161480610f365750610f358185610b9d565b5b80610f7457508373ffffffffffffffffffffffffffffffffffffffff16610f5c846105b7565b73ffffffffffffffffffffffffffffffffffffffff16145b91505092915050565b8273ffffffffffffffffffffffffffffffffffffffff16610f9d82610837565b73ffffffffffffffffffffffffffffffffffffffff1614610ff3576040517f08c379a0000000000000000000000000000000000000000000000000000000008152600401610fea90612635565b60405180910390fd5b600073ffffffffffffffffffffffffffffffffffffffff168273ffffffffffffffffffffffffffffffffffffffff161415611063576040517f08c379a000000000000000000000000000000000000000000000000000000000815260040161105a90612675565b60405180910390fd5b61107083838360016117f3565b8273ffffffffffffffffffffffffffffffffffffffff1661109082610837565b73ffffffffffffffffffffffffffffffffffffffff16146110e6576040517f08c379a00000000000000000000000000000000000000000000000000000000081526004016110dd90612635565b60405180910390fd5b6004600082815260200190815260200160002060006101000a81549073ffffffffffffffffffffffffffffffffffffffff02191690556001600360008573ffffffffffffffffffffffffffffffffffffffff1673ffffffffffffffffffffffffffffffffffffffff168152602001908152602001600020600082825403925050819055506001600360008473ffffffffffffffffffffffffffffffffffffffff1673ffffffffffffffffffffffffffffffffffffffff16815260200190815260200160002060008282540192505081905550816002600083815260200190815260200160002060006101000a81548173ffffffffffffffffffffffffffffffffffffffff021916908373ffffffffffffffffffffffffffffffffffffffff160217905550808273ffffffffffffffffffffffffffffffffffffffff168473ffffffffffffffffffffffffffffffffffffffff167fddf252ad1be2c89b69c2b068fc378daa952ba7f163c4a11628f55a4df523b3ef60405160405180910390a46112728383836001611919565b505050565b6001816000016000828254019250508190555050565b600081600001549050919050565b600073ffffffffffffffffffffffffffffffffffffffff168273ffffffffffffffffffffffffffffffffffffffff16141561130b576040517f08c379a0000000000000000000000000000000000000000000000000000000008152600401611302906126f5565b60405180910390fd5b611314816117b2565b15611354576040517f08c379a000000000000000000000000000000000000000000000000000000000815260040161134b90612655565b60405180910390fd5b6113626000838360016117f3565b61136b816117b2565b156113ab576040517f08c379a00000000000000000000000000000000000000000000000000000000081526004016113a290612655565b60405180910390fd5b6001600360008473ffffffffffffffffffffffffffffffffffffffff1673ffffffffffffffffffffffffffffffffffffffff16815260200190815260200160002060008282540192505081905550816002600083815260200190815260200160002060006101000a81548173ffffffffffffffffffffffffffffffffffffffff021916908373ffffffffffffffffffffffffffffffffffffffff160217905550808273ffffffffffffffffffffffffffffffffffffffff16600073ffffffffffffffffffffffffffffffffffffffff167fddf252ad1be2c89b69c2b068fc378daa952ba7f163c4a11628f55a4df523b3ef60405160405180910390a46114b5600083836001611919565b5050565b6114c2826117b2565b611501576040517f08c379a00000000000000000000000000000000000000000000000000000000081526004016114f8906126d5565b60405180910390fd5b80600660008481526020019081526020016000209080519060200190611528929190611e34565b505050565b60006002600083815260200190815260200160002060009054906101000a900473ffffffffffffffffffffffffffffffffffffffff169050919050565b8173ffffffffffffffffffffffffffffffffffffffff168373ffffffffffffffffffffffffffffffffffffffff1614156115d9576040517f08c379a00000000000000000000000000000000000000000000000000000000081526004016115d090612695565b60405180910390fd5b80600560008573ffffffffffffffffffffffffffffffffffffffff1673ffffffffffffffffffffffffffffffffffffffff16815260200190815260200160002060008473ffffffffffffffffffffffffffffffffffffffff1673ffffffffffffffffffffffffffffffffffffffff16815260200190815260200160002060006101000a81548160ff0219169083151502179055508173ffffffffffffffffffffffffffffffffffffffff168373ffffffffffffffffffffffffffffffffffffffff167f17307eab39ab6107e8899845ad3d59bd9653f200f220920489ca2b5937696c31836040516116ca91906125b8565b60405180910390a3505050565b6116e2848484610f7d565b6116ee8484848461191f565b61172d576040517f08c379a000000000000000000000000000000000000000000000000000000000815260040161172490612615565b60405180910390fd5b50505050565b606060405180602001604052806000815250905090565b606061175582610ddc565b600061175f611733565b9050600081511161177f57604051806020016040528060008152506117aa565b8061178984611ab6565b60405160200161179a92919061252d565b6040516020818303038152906040525b915050919050565b60008073ffffffffffffffffffffffffffffffffffffffff166117d48361152d565b73ffffffffffffffffffffffffffffffffffffffff1614159050919050565b600181111561191357600073ffffffffffffffffffffffffffffffffffffffff168473ffffffffffffffffffffffffffffffffffffffff16146118875780600360008673ffffffffffffffffffffffffffffffffffffffff1673ffffffffffffffffffffffffffffffffffffffff168152602001908152602001600020600082825461187f91906128f0565b925050819055505b600073ffffffffffffffffffffffffffffffffffffffff168373ffffffffffffffffffffffffffffffffffffffff16146119125780600360008573ffffffffffffffffffffffffffffffffffffffff1673ffffffffffffffffffffffffffffffffffffffff168152602001908152602001600020600082825461190a919061289a565b925050819055505b5b50505050565b50505050565b60006119408473ffffffffffffffffffffffffffffffffffffffff16611bda565b15611aa9578373ffffffffffffffffffffffffffffffffffffffff1663150b7a02611969610e27565b8786866040518563ffffffff1660e01b815260040161198b949392919061256c565b602060405180830381600087803b1580156119a557600080fd5b505af19250505080156119d657506040513d601f19601f820116820180604052508101906119d391906121e0565b60015b611a59573d8060008114611a06576040519150601f19603f3d011682016040523d82523d6000602084013e611a0b565b606091505b50600081511415611a51576040517f08c379a0000000000000000000000000000000000000000000000000000000008152600401611a4890612615565b60405180910390fd5b805181602001fd5b63150b7a0260e01b7bffffffffffffffffffffffffffffffffffffffffffffffffffffffff1916817bffffffffffffffffffffffffffffffffffffffffffffffffffffffff191614915050611aae565b600190505b949350505050565b606060006001611ac584611bfd565b01905060008167ffffffffffffffff811115611b0a577f4e487b7100000000000000000000000000000000000000000000000000000000600052604160045260246000fd5b6040519080825280601f01601f191660200182016040528015611b3c5781602001600182028036833780820191505090505b509050600082602001820190505b600115611bcf578080600190039150507f3031323334353637383961626364656600000000000000000000000000000000600a86061a8153600a8581611bb9577f4e487b7100000000000000000000000000000000000000000000000000000000600052601260045260246000fd5b0494506000851415611bca57611bcf565b611b4a565b819350505050919050565b6000808273ffffffffffffffffffffffffffffffffffffffff163b119050919050565b600080600090507a184f03e93ff9f4daa797ed6e38ed64bf6a1f0100000000000000008310611c81577a184f03e93ff9f4daa797ed6e38ed64bf6a1f0100000000000000008381611c77577f4e487b7100000000000000000000000000000000000000000000000000000000600052601260045260246000fd5b0492506040810190505b6d04ee2d6d415b85acef81000000008310611ce4576d04ee2d6d415b85acef81000000008381611cda577f4e487b7100000000000000000000000000000000000000000000000000000000600052601260045260246000fd5b0492506020810190505b662386f26fc100008310611d3957662386f26fc100008381611d2f577f4e487b7100000000000000000000000000000000000000000000000000000000600052601260045260246000fd5b0492506010810190505b6305f5e1008310611d88576305f5e1008381611d7e577f4e487b7100000000000000000000000000000000000000000000000000000000600052601260045260246000fd5b0492506008810190505b6127108310611dd3576127108381611dc9577f4e487b7100000000000000000000000000000000000000000000000000000000600052601260045260246000fd5b0492506004810190505b60648310611e1c5760648381611e12577f4e487b7100000000000000000000000000000000000000000000000000000000600052601260045260246000fd5b0492506002810190505b600a8310611e2b576001810190505b80915050919050565b828054611e40906129da565b90600052602060002090601f016020900481019282611e625760008555611ea9565b82601f10611e7b57805160ff1916838001178555611ea9565b82800160010185558215611ea9579182015b82811115611ea8578251825591602001919060010190611e8d565b5b509050611eb69190611eba565b5090565b5b80821115611ed3576000816000905550600101611ebb565b5090565b6000611eea611ee5846127f5565b6127d0565b905082815260208101848484011115611f0257600080fd5b611f0d848285612998565b509392505050565b6000611f28611f2384612826565b6127d0565b905082815260208101848484011115611f4057600080fd5b611f4b848285612998565b509392505050565b600081359050611f6281612e6f565b92915050565b600081359050611f7781612e86565b92915050565b600081359050611f8c81612e9d565b92915050565b600081519050611fa181612e9d565b92915050565b600082601f830112611fb857600080fd5b8135611fc8848260208601611ed7565b91505092915050565b600082601f830112611fe257600080fd5b8135611ff2848260208601611f15565b91505092915050565b60008135905061200a81612eb4565b92915050565b60006020828403121561202257600080fd5b600061203084828501611f53565b91505092915050565b6000806040838503121561204c57600080fd5b600061205a85828601611f53565b925050602061206b85828601611f53565b9150509250929050565b60008060006060848603121561208a57600080fd5b600061209886828701611f53565b93505060206120a986828701611f53565b92505060406120ba86828701611ffb565b9150509250925092565b600080600080608085870312156120da57600080fd5b60006120e887828801611f53565b94505060206120f987828801611f53565b935050604061210a87828801611ffb565b925050606085013567ffffffffffffffff81111561212757600080fd5b61213387828801611fa7565b91505092959194509250565b6000806040838503121561215257600080fd5b600061216085828601611f53565b925050602061217185828601611f68565b9150509250929050565b6000806040838503121561218e57600080fd5b600061219c85828601611f53565b92505060206121ad85828601611ffb565b9150509250929050565b6000602082840312156121c957600080fd5b60006121d784828501611f7d565b91505092915050565b6000602082840312156121f257600080fd5b600061220084828501611f92565b91505092915050565b60006020828403121561221b57600080fd5b600082013567ffffffffffffffff81111561223557600080fd5b61224184828501611fd1565b91505092915050565b60006020828403121561225c57600080fd5b600061226a84828501611ffb565b91505092915050565b61227c81612924565b82525050565b61228b81612936565b82525050565b600061229c82612857565b6122a6818561286d565b93506122b68185602086016129a7565b6122bf81612aca565b840191505092915050565b60006122d582612862565b6122df818561287e565b93506122ef8185602086016129a7565b6122f881612aca565b840191505092915050565b600061230e82612862565b612318818561288f565b93506123288185602086016129a7565b80840191505092915050565b6000612341602d8361287e565b915061234c82612adb565b604082019050919050565b600061236460328361287e565b915061236f82612b2a565b604082019050919050565b600061238760258361287e565b915061239282612b79565b604082019050919050565b60006123aa601c8361287e565b91506123b582612bc8565b602082019050919050565b60006123cd60248361287e565b91506123d882612bf1565b604082019050919050565b60006123f060198361287e565b91506123fb82612c40565b602082019050919050565b600061241360298361287e565b915061241e82612c69565b604082019050919050565b6000612436602e8361287e565b915061244182612cb8565b604082019050919050565b600061245960208361287e565b915061246482612d07565b602082019050919050565b600061247c60188361287e565b915061248782612d30565b602082019050919050565b600061249f60218361287e565b91506124aa82612d59565b604082019050919050565b60006124c2603d8361287e565b91506124cd82612da8565b604082019050919050565b60006124e560308361287e565b91506124f082612df7565b604082019050919050565b600061250860108361287e565b915061251382612e46565b602082019050919050565b6125278161298e565b82525050565b60006125398285612303565b91506125458284612303565b91508190509392505050565b60006020820190506125666000830184612273565b92915050565b60006080820190506125816000830187612273565b61258e6020830186612273565b61259b604083018561251e565b81810360608301526125ad8184612291565b905095945050505050565b60006020820190506125cd6000830184612282565b92915050565b600060208201905081810360008301526125ed81846122ca565b905092915050565b6000602082019050818103600083015261260e81612334565b9050919050565b6000602082019050818103600083015261262e81612357565b9050919050565b6000602082019050818103600083015261264e8161237a565b9050919050565b6000602082019050818103600083015261266e8161239d565b9050919050565b6000602082019050818103600083015261268e816123c0565b9050919050565b600060208201905081810360008301526126ae816123e3565b9050919050565b600060208201905081810360008301526126ce81612406565b9050919050565b600060208201905081810360008301526126ee81612429565b9050919050565b6000602082019050818103600083015261270e8161244c565b9050919050565b6000602082019050818103600083015261272e8161246f565b9050919050565b6000602082019050818103600083015261274e81612492565b9050919050565b6000602082019050818103600083015261276e816124b5565b9050919050565b6000602082019050818103600083015261278e816124d8565b9050919050565b600060208201905081810360008301526127ae816124fb565b9050919050565b60006020820190506127ca600083018461251e565b92915050565b60006127da6127eb565b90506127e68282612a0c565b919050565b6000604051905090565b600067ffffffffffffffff8211156128105761280f612a9b565b5b61281982612aca565b9050602081019050919050565b600067ffffffffffffffff82111561284157612840612a9b565b5b61284a82612aca565b9050602081019050919050565b600081519050919050565b600081519050919050565b600082825260208201905092915050565b600082825260208201905092915050565b600081905092915050565b60006128a58261298e565b91506128b08361298e565b9250827fffffffffffffffffffffffffffffffffffffffffffffffffffffffffffffffff038211156128e5576128e4612a3d565b5b828201905092915050565b60006128fb8261298e565b91506129068361298e565b92508282101561291957612918612a3d565b5b828203905092915050565b600061292f8261296e565b9050919050565b60008115159050919050565b60007fffffffff0000000000000000000000000000000000000000000000000000000082169050919050565b600073ffffffffffffffffffffffffffffffffffffffff82169050919050565b6000819050919050565b82818337600083830152505050565b60005b838110156129c55780820151818401526020810190506129aa565b838111156129d4576000848401525b50505050565b600060028204905060018216806129f257607f821691505b60208210811415612a0657612a05612a6c565b5b50919050565b612a1582612aca565b810181811067ffffffffffffffff82111715612a3457612a33612a9b565b5b80604052505050565b7f4e487b7100000000000000000000000000000000000000000000000000000000600052601160045260246000fd5b7f4e487b7100000000000000000000000000000000000000000000000000000000600052602260045260246000fd5b7f4e487b7100000000000000000000000000000000000000000000000000000000600052604160045260246000fd5b6000601f19601f8301169050919050565b7f4552433732313a2063616c6c6572206973206e6f7420746f6b656e206f776e6560008201527f72206f7220617070726f76656400000000000000000000000000000000000000602082015250565b7f4552433732313a207472616e7366657220746f206e6f6e20455243373231526560008201527f63656976657220696d706c656d656e7465720000000000000000000000000000602082015250565b7f4552433732313a207472616e736665722066726f6d20696e636f72726563742060008201527f6f776e6572000000000000000000000000000000000000000000000000000000602082015250565b7f4552433732313a20746f6b656e20616c7265616479206d696e74656400000000600082015250565b7f4552433732313a207472616e7366657220746f20746865207a65726f2061646460008201527f7265737300000000000000000000000000000000000000000000000000000000602082015250565b7f4552433732313a20617070726f766520746f2063616c6c657200000000000000600082015250565b7f4552433732313a2061646472657373207a65726f206973206e6f74206120766160008201527f6c6964206f776e65720000000000000000000000000000000000000000000000602082015250565b7f45524337323155524953746f726167653a2055524920736574206f66206e6f6e60008201527f6578697374656e7420746f6b656e000000000000000000000000000000000000602082015250565b7f4552433732313a206d696e7420746f20746865207a65726f2061646472657373600082015250565b7f4552433732313a20696e76616c696420746f6b656e2049440000000000000000600082015250565b7f4552433732313a20617070726f76616c20746f2063757272656e74206f776e6560008201527f7200000000000000000000000000000000000000000000000000000000000000602082015250565b7f4552433732313a20617070726f76652063616c6c6572206973206e6f7420746f60008201527f6b656e206f776e6572206f7220617070726f76656420666f7220616c6c000000602082015250565b7f4f6e6c79206d61726b6574706c616365206f776e65722063616e20757064617460008201527f65206c697374696e672070726963652e00000000000000000000000000000000602082015250565b7f49742773206e6f7420612041646d696e00000000000000000000000000000000600082015250565b612e7881612924565b8114612e8357600080fd5b50565b612e8f81612936565b8114612e9a57600080fd5b50565b612ea681612942565b8114612eb157600080fd5b50565b612ebd8161298e565b8114612ec857600080fd5b5056fea2646970667358221220922738ec43a229e5ff1d0ab913c1c6e733cc420f3aa323e4380551b56b85e34064736f6c63430008040033",
  "linkReferences": {},
  "deployedLinkReferences": {}
}